:100D150054696D65720052756E004E616E6F644167
:100D250061610053746F7000466972737400536596
:050D3500636F6E640015
:100C5800012130012D3001303001313001323001B5
:100C68002200012B300123300125300127300129D2
:100C780030012C30012430012630012830012A307F
:030E6500DFFE228B
:100E1C00AE07AF061EEF600C7FF8120E657FF8125E
:050E2C000E6580EE22BE
:100E3100758901758C46E4F58AD2AFD2A9D28C228C
:03000B00020A02E4
:100A0200C0E0C0F0C083C082C0D075D008758C46EB
:100A1200758A00052FE52F7002052E20E002D2070D
:100A2200AE2EAF2F7C007D14120819ED4C7002D24D
:100A320001AE2EAF2F7C047DB0120819ED4C70026E
:100A4200D203AE2EAF2FE4FCFD7B407A197901F878
:100A5200120B68AC08AD09AE0AAF0BEC4D4E4F70ED
:100A620002D206AE2EAF2FE4FCFDFB7A5E791AF8B5
:100A7200120B68AC08AD09AE0AAF0BEC4D4E4F70CD
:100A820006D202F52EF52FD0D0D082D083D0F0D06E
:020A9200E03250
:070E5700D2AFD2A8D288221D
:070E5E00D2AFD2AAD28A2212
:03001300020E6872
:030E6800D2003283
:100D5D00AB217D0F7F01120E023007150521AB214E
:100D6D007D0F7F01120E027F0A120E1C752130C2FB
:020D7D0007224B
:100CB900AB2D7D0D7F01120E02AB307D0C7F011231
:100CC9000E02300118052DE52D643A700E053075B8
:0E0CD9002D30E53064367003753030C20122D4
:100CE700AB317D0A7F01120E02AB327D097F011203
:100CF7000E023003180531E531643A700E0532757E
:0E0D07003130E53264367003753230C203229B
:100BEA007BFF7A0D7915E4FD7F01120C227BFF7AD7
:100BFA000D791BE4FDFF120C227BFF7A0D791F7D14
:100C0A0008E4FF120C227B3A7D0B7F01120E027B55
:080C1A003A7D0E7F01020E027B
:0C0E4100120BEA120D5D120CB9020CE756
:100C8900120BEAAB317D0A7F01120E02AB327D09EC
:100C99007F01120E02AB2D7D0D7F01120E02AB30CA
:100CA9007D0C7F01120E02AB217D0F7F01020E0226
:03000300020BAC41
:100BAC00C0E0C0F0C083C082C0D075D000D2043089
:100BBC0004217BFF7A0D7928E4FDFF120C2220B072
:100BCC00EE7F0A120E1C20B0E6120E4D120C89C2DA
:0E0BDC000480DCD0D0D082D083D0F0D0E032C4
:100B200020B1447F0A120E1C20B13CE522FD7C005E
:100B3000701185212B852D23853025853127853220
:100B4000298015ED64014C701485212C852D248598
:100B5000302685312885322A7F05120E1C0522E5B4
:080B60002264027002F522225A
:10093C00200003020A01120E4D120B207BFF7A0DD0
:10094C00792DE4FDFF120C22AB297D08E4FF120E79
:10095C0002AB277D09E4FF120E027B3A7D0AE4FF0D
:10096C00120E02AB257D0BE4FF120E02AB237D0CA5
:10097C00E4FF120E027B3A7D0DE4FF120E02AB2B4C
:10098C007D0EE4FF120E027BFF7A0D7933E4FD7FBE
:10099C0001120C22AB2A7D087F01120E02AB287DBE
:1009AC00097F01120E027B3A7D0A7F01120E02AB07
:1009BC00267D0B7F01120E02AB247D0C7F01120EE3
:1009CC00027B3A7D0D7F01120E02AB2C7D0E7F0156
:1009DC00120E027FC8120E1C30B30302093C7F0AB0
:1009EC00120E1C30B30302093C120E4D7F05120E81
:0609FC001CC20080EE2287
:100DE300120E31120E57120E5E120D3A120E4D12E2
:0F0DF3000E41120B2012093C7F32120E1C80F0B1
:100DC300C2A6D2A57F0A120E65C2A77F0A120E65BC
:0F0DD300D2A77F0A120E6585801BE5805480FF32
:010DE20022EE
:100D7F008F1A120DC3EF70FAC2A6C2A5D2A77F0AAF
:100D8F00120E65851A807F0A120E65C2A77F0A02AE
:020D9F000E65DF
:100DA1008F1A120DC3EF70FAD2A6C2A5D2A77F0A7D
:100DB100120E65851A807F0A120E65C2A77F0A028C
:020DC1000E65BD
:100E02008D168B17EF7006E51624808004E51624F4
:0A0E1200C0FF120D7FAF17020DA103
:100C22008D168B178A188919EF7006E516248080B5
:100C320004E51624C0FF120D7FAB17AA18A91912DA
:100C42000800FF6010120DA174012519F519E43591
:060C520018F51880E422F1
:0A0E4D007F01120D7F7F05020E1CCD
:100D3A007F38120D7F7F05120E1C7F08120D7F7FF0
:100D4A0001120D7F7F06120D7F7F05120E1C7F0C8C
:030D5A00020D7F08
:03000000020A945D
:0C0A9400787FE4F6D8FD758132020ADBA1
:10080000BB010689828A83E0225002E722BBFE02F6
:09081000E32289828A83E4932229
:10081900BC000BBE0029EF8DF084FFADF022E4CCC3
:10082900F875F008EF2FFFEE33FEEC33FCEE9DEC8C
:10083900984005FCEE9DFE0FD5F0E9E4CEFD22EDD2
:10084900F8F5F0EE8420D21CFEADF075F008EF2F1C
:10085900FFED33FD4007985006D5F0F222C398FD0D
:050869000FD5F0EA22AA
:100B6800C2D5E830E70FB2D5E4C39BFBE49AFAE4B8
:100B780099F9E498F8EC30E717B2D5120B9E1208F1
:100B8800AAE4C39BFBE49AFAE499F9E498F8800391
:100B98001208AA30D50DE4C39FFFE49EFEE49DFD34
:040BA800E49CFC22AB
:100AA000020DE3E493A3F8E493A34003F68001F27C
:100AB00008DFF48029E493A3F85407240CC8C33357
:100AC000C4540F4420C8834004F456800146F6DF26
:100AD000E4800B0102040810204080900C58E47E52
:100AE000019360BCA3FF543F30E509541FFEE4931B
:100AF000A360010ECF54C025E060A840B8E493A3E2
:100B0000FAE493A3F8E493A3C8C582C8CAC583CA0C
:100B1000F0A3C8C582C8CAC583CADFE9DEE780BEC4
:010C8800006B
:10086E0075F008758200EF2FFFEE33FECD33CDCC41
:10087E0033CCC58233C5829BED9AEC99E5829840C4
:10088E000CF582EE9BFEED9AFDEC99FC0FD5F0D6A1
:10089E00E4CEFBE4CDFAE4CCF9A88222B800C1B9CB
:1008AE000059BA002DEC8BF084CFCECDFCE5F0CB09
:1008BE00F97818EF2FFFEE33FEED33FDEC33FCEB42
:1008CE0033FB10D703994004EB99FB0FD8E5E4F9FD
:1008DE00FA227818EF2FFFEE33FEED33FDEC33FCEA
:1008EE00C933C910D7059BE99A4007EC9BFCE99ADE
:1008FE00F90FD8E0E4C9FAE4CCFB2275F010EF2F23
:10090E00FFEE33FEED33FDCC33CCC833C810D70722
:10091E009BEC9AE899400AED9BFDEC9AFCE899F85D
:0E092E000FD5F0DAE4CDFBE4CCFAE4C8F922F0
:00000001FF
